:020000040001F9
:10800000702F0020F58001000F8101001181010017
:108010000000000000000000000000000000000060
:1080200000000000000000000000000013810100BB
:108030000000000000000000158101001781010010
:1080400019810100198101005D840100198101007D
:108050003183010000000000C58101001981010089
:1080600019810100198101001981010019810100A4
:108070001981010019810100198101001981010094
:10808000198101001183010019810100198101008A
:108090009183010019810100E5830100198101002C
:1080A000198101001981010000000000000000009A
:1080B00000000000000000000000000000000000C0
:1080C0000348854600F06CF800480047C598010059
:1080D000702F0020401E00BF00BF00BF00BF00BFC8
:1080E00000BF00BF00BF00BF00BF00BF00BFF1D195
:1080F000704700000321094802680A4302600848EB
:1081000002680A4302600748804707480047FEE7C5
:10811000FEE7FEE7FEE7FEE7FEE70000240500407D
:108120005405004009840100C180010030B50B46B0
:10813000014600202022012409E00D46D5409D4241
:1081400005D31D469540491B2546954040191546C7
:10815000521E002DF1DC30BD03460B439B0703D0BC
:1081600009E008C9121F08C0042AFAD203E00B78FC
:108170000370401C491C521EF9D27047D2B201E074
:108180000270401C491EFBD270470022F6E710B572
:1081900013460A4604461946FFF7F0FF204610BD75
:1081A000064C0125064E05E0E36807CC2B430C3C4A
:1081B00098471034B442F7D3FFF786FF38A3010085
:1081C00058A30100F8B50024FF25013501262746F4
:1081D0000094284601F09AFC002808D034484068F2
:1081E000304204D0334800212818344301602D1D4B
:1081F00076007F1CADB2042FEBD3FF207D3001F061
:1082000085FC002807D02C4800210160400704436A
:108210002A48006900902A4F200712D00126002525
:1082200026420AD02748AA00111808690969C00423
:10823000C00E8903BA58890F904776006D1C042D33
:10824000EED3002C30DA00241D4E082130194030C6
:108250004156491C25D0077ABD06AD0E284601F0CF
:1082600041F880003658002E1BD0BF090121A940DB
:10827000154AA80080180068009A8003800F1142F8
:1082800002D0022802D00CE003280AD1032F05D126
:1082900002280AD00221284601F028FC3946284647
:1082A000B047641C062CCFD3F8BD0321F3E70000D0
:1082B00000630040006000407C6100400005005009
:1082C0004426002000650040000700508307FF227D
:1082D000DB0E9A408907090E994000280BDA000747
:1082E000000F0838830808489B001818C369934397
:1082F0000B43C3617047830804489B001B18186830
:10830000904308431860704700ED00E000E400E08F
:1083100010B506490020086048608860C8600349BD
:1083200040390860486001F0DFFE10BD4011014097
:1083300070B5134CA06A0026124D002814D0A66216
:108340002878012810D11048E96841600E492A694F
:1083500040394A63AA698A63696981600B490120CF
:108360008862022001F0FAFC6068002806D066608E
:108370002878022802D1032001F0F0FC70BD000033
:1083800000410040B820002040450040004000402F
:10839000FEB50020C043124D029068690190684606
:1083A0002E6901F0B3F8074601F0CAF90446002F20
:1083B00008D002AA0199009801F0C8F8029801F0CB
:1083C00009FA06E0029801F005FA002801D1002C14
:1083D00002D0304600F08EFF00206871FEBD000024
:1083E000D820002010B507484068002807D08047F3
:1083F000002803D00022114600F0CAF910BD01F098
:1084000019F910BDFC20002010B501F061F9002819
:1084100005D00E490C484860C8130D4988610D48C5
:10842000018CC9B201290ED1818C09070BD1018DB4
:108430000906090F042906D1808D0006000F02D11C
:1084400005490120886010BDDFFF07C0000500401E
:10845000006C0040C00F00F0000600407CB51B4CD3
:10846000A0681B4E0025002818D0A5601948806917
:10847000C1B2194800F0BFF9002805D001216A46B1
:1084800011700190684607E013488168C068401A7F
:10849000012803D16846057071688847E0690028A3
:1084A00003D0E561032001F095FB606A00280BD042
:1084B0006562084980390868086002216A461170BF
:1084C00001907168684688477CBD0000002100402B
:1084D0008C200020002500402426002030B4744663
:1084E000641E2578641CAB4200D21D46635D5B00B0
:1084F000E31830BC184702E008C8121F08C1002A60
:10850000FAD170477047002001E001C1121F002A14
:10851000FBD1704738B50D4C6078022802D00C4969
:108520000120886069460B4800F042F9002802D01B
:1085300000F016F838BD0848802181606A46074B74
:108540001278DA6102226270416038BD8C2000200E
:108550000020004034260020002300400025004079
:108560001CB506490120C8600549487003206A46C9
:1085700010704968684688471CBD00000020004014
:108580008C20002004490020487004490122CA6060
:108590004A600349086070478C200020002000409A
:1085A00000250040F7B582B0002605461670007819
:1085B0001446002805D02846039901F061FA060008
:1085C00008D1A87800281ED02078039F001D1F28FE
:1085D00002D90C2005B0F0BD684679DF0028F9D13A
:1085E00021780322481C20707A5421781922481CD3
:1085F00020707A542078C1196846008801F0B4FDD3
:10860000217840182070E8780223002810D02078C4
:10861000039A411C2170135420780399471C0122AE
:1086200027700A542078EA78471C039927700A5467
:108630006868002815D00021415620788C460246F3
:10864000C01C03991F28C4D8501C20708B5422785A
:108650000A23501C20708B5420786246431C2370E0
:108660000A542889002809D02846009406220221AD
:108670000830039B01F0ECFD0600ABD1288A0028EE
:1086800009D028460094072203211030039B01F0F3
:10869000DFFD06009ED1288B002809D028460094D3
:1086A000152214211830039B01F0D2FD060091D150
:1086B000286A002805D02246039900F0ADFE060086
:1086C00088D1686A002805D02246039901F0A6F9EE
:1086D000060084D12C20405D002806D02246284682
:1086E000039901F0FDFA0600C7D1304672E710B5D4
:1086F00001220221002000F081FC002801D007287F
:1087000012D107220221012000F078FC002801D0BC
:10871000072809D100210A22084600F06FFC002832
:1087200001D0072800D1002010BD000030B5A3B053
:10873000302101A8FFF729FD0221684601710024BC
:1087400084710621C17130210DA8FFF71EFD01259E
:1087500010A885800C481290242119A8FFF715FD58
:1087600018A8057428201E941D90084B19AA0DA95D
:10877000009401A800F06CF9002803D000221146F3
:1087800000F006F823B030BD04200020219B01003A
:10879000BFF34F8F03490248C860BFF34F8FFEE716
:1087A0000400FA0500ED00E0C16881600020704718
:1087B0008268C36893420AD0826883881A4003683B
:1087C0009A5C0A708168491C81600020704705200E
:1087D0007047002906D0002A02D0531E134203D04E
:1087E000092070470E20704701608380002181605E
:1087F000C160084670478268C3689B1A82889342AA
:1088000008D8C36813400268D154C168491CC160CC
:10881000002070470420704770B5114CA568002DEA
:1088200006D0002A06D0002804D00023247809E0CE
:10883000082070BD072070BD24265E43AE5D002E6B
:1088400004D05B1CA342F7DB042070BD2424012666
:108850005C432E5564196170A2610360002070BDF5
:10886000D8200020FFB59807002481B01E46154689
:108870000F4600280BD1002E09D001F00FFA224933
:108880000A9888610F70324600208E6008E0072049
:1088900005B0F0BD24234343D4549B181C75401CE1
:1088A000B842F7DB24204743BB19032048700F462A
:1088B0001846CB6019461830002218232E465E4316
:1088C000D3005B181C705C709D7058603018521C8F
:1088D000032AF5DB0020C0433861BC70FC70012422
:1088E0000A482405046003211420FFF7EFFC084820
:1088F0000460084C0198A06003211120FFF7E6FCFA
:10890000606878610020C3E7D820002080E200E0A2
:1089100000E100E000150140FEB504461D48174681
:1089200082680D46002A0CD001788C4201D2052DB8
:1089300001D20720FEBD214624235943535C012B5D
:1089400001D00820FEBD8818407801281DD00026DF
:1089500001F042FCC0000F490190C9684018694607
:1089600001F064FC002812D0012101700A49446022
:1089700049680830E2C007490198C9684118009861
:10898000487001F03FFB0020FEBD2E46E0E70420CA
:10899000FEBD0000D820002000150140F8B5144DA0
:1089A0000446A868002809D029788C4201D3072002
:1089B000F8BD24216143405C012801D00820F8BDA6
:1089C00001F00AFCC600E8686946301801F02EFC88
:1089D00000280AD0022101704460E868311800982C
:1089E000487001F00FFB0020F8BD0420F8BD000026
:1089F000D820002070B50C4692B000216A46117054
:108A000007251171002809D0C17849070CD502A9A2
:108A1000FFF7C8FD002808D102AE00E00026002CB8
:108A20000ED0E078002802D0284612B070BD01AA0E
:108A30000AA92046FFF7B6FD0028F6D10AAA00E0F1
:108A40000022684603790178304672DFEDE70000C6
:108A500070B50D4604991646040042D0002E40D051
:108A6000424800224271C3600161242231464048DD
:108A7000FFF772FB00F0B8F83D4934310846103872
:108A800001602031816030215438FFF77EFB384887
:108A9000217830380170A1788170E178C1706178F7
:108AA00041706269216942610161E268A168C26046
:108AB00081600146E369A269CB618A61616A00292C
:108AC00019D00146A4310246B03241628A60636A1D
:108AD0001B880B80616A436A898899800021436AF8
:108AE00006E00E2070BD666AB668765C5654491C76
:108AF0009E888E42F7D8A16A00291CD01C4AAC324D
:108B000011460C398A608162A36A9B888B80A16AB6
:108B1000836A098819800021836A04E0A66AB6681E
:108B2000765C5654491C9E888E42F7D82C210A5DEB
:108B30000F4910390A73216A002909D00B491431F1
:108B40000162226A52884A80216A026A0988118079
:108B50006168002904D00549891D41606168416050
:108B6000034829463038FFF745FF70BD54200020E8
:108B70003C25002010B502881A4C102A17D000217D
:108B8000112A17D0192A11D1807900280ED16079C5
:108B900001281BD002281FD003281FD0042805D18C
:108BA0002171E2680846002A00D0904710BD8088F5
:108BB000208110BD6170808821898842F9D101200F
:108BC00005E021690029F4D0884710BD022000F09B
:108BD00013F80028F5D110BD0320F8E70320207119
:108BE0000420F4E75420002010B507210148FFF7C6
:108BF000CCFA10BD6C200020F0B5754C87B06071C8
:108C0000002606A8069601F035F80127082806D0A8
:108C100000286FD10698002802D02770D4E006966D
:108C2000FFF7E2FF6B4D6878002802D060790128D9
:108C300005D0A87800280AD06079022807D1E16819
:108C4000002903D0E7700820884700E0E6706079CB
:108C5000012808D16878002809D05D48193000F053
:108C6000FDFF002803D06079022802D00CE002202A
:108C70006071A878002805D05548193000F0EEFF43
:108C8000002801D103206071287B002804D160797D
:108C9000032801D104206071287E002804D1607966
:108CA000042801D166712671E16800290AD0607933
:108CB000032801D0042805D12878002802D0607844
:108CC000002818D0A67018216846FFF75EFA68469B
:108CD0000670019606720396607901280FD002286B
:108CE00016D03C4E24363746543F03281CD0042867
:108CF0005ED13BE069E0A77007208847E3E734488E
:108D0000183001906846077046820682277152E04B
:108D10002F48183001906846077029894182A98838
:108D200001820220207146E0A88A69464882288A8A
:108D300008822848243001F0EFFA002805D028786E
:108D4000002802D06078002801D003202FE0022004
:108D50006946087204200396F8701E4800213038D6
:108D6000FFF748FE002830D1052020E0A88B694697
:108D70000882288C48821748243001F0CDFA002858
:108D800005D02878002802D06078002801D004207F
:108D90000DE002206946087204200396F8700D4821
:108DA00000213038FFF726FE00280ED10620207162
:108DB0006079002803D0684673DF002805D1E16898
:108DC000002901D020798847002007B0F0BD0000BD
:108DD000542000203C25002070B5054601461C2289
:108DE0000F48FFF7B9F90F4C0026267029680029B3
:108DF00007D00822A018FFF7AFF9204608307ADF25
:108E000002E0084808307BDF002808D1401E60805F
:108E100004486670044A0021001DFFF7FDFC70BD88
:108E2000082600207420002075A10100F8B5224C0E
:108E3000028800271F4DE689102A16D02946496866
:108E4000112A21D0122A2DD0502A1CD1C288801D6F
:108E5000B24218D1028B022A15D1C27E837E100243
:108E60001843C007C00F0CD112E081886980014609
:108E70001048082216311030FFF76EF96F70002E7F
:108E800001D100F011FBF8BD0020C04368806F7075
:108E90000846FFF783FD0028F5D0A1690029F2D02C
:108EA0008847F8BD811D034808221030FFF754F9A8
:108EB000E7E70000742000200826002010B50446D3
:108EC000FFF7B4FF2146064800F038F8204600F0CE
:108ED00037FE2046FFF74EFE204600F053F810BD47
:108EE000EC23002030B5040013480D460FC885B0B0
:108EF00003936B4607C31CD0002D1AD00020C0433B
:108F0000A081286820612146684663DF00280ED1D1
:108F100021786846817401210182A21C04A90120E4
:108F2000A0DF002803D12946204600F035FA05B01D
:108F300030BD0E20FBE7000028A3010010B500287B
:108F400018D0002916D00A88102A14D0112A14D05B
:108F5000502A0FD10446C888A288891D904209D1A1
:108F60002369002B06D00A8B20461A319847A08926
:108F7000132176DF10BD898801E00021C94381817A
:108F800010BD000010B51C4C0188606810290DD080
:108F900011290AD1401E606007D1FFF7A8FB002805
:108FA00003D02168002900D0884710BD00281ED1B9
:108FB00000210122084600F021F8002801D00728EE
:108FC00011D107220221012000F018F8002801D059
:108FD000072808D104220221002000F00FF8002801
:108FE00005D0072803D02168002900D08847606891
:108FF000401C606010BD00004C20002070B50023B4
:10900000042811D2440004190D4D012A02D101296E
:109010000DD0002246008019094E801900290CD07D
:10902000012906D0022906D00723184670BD0D304D
:10903000C2B22A55F9E74270F7E78270F5E70000FF
:109040000025002010B5054A0146127A0020D207FB
:1090500002D0084600F004F810BD00002C200020CB
:10906000FEB5784906464F684B690093BB00FB1874
:1090700000200122019352050546734C3300FFF78F
:109080002DFA180D13133749596C828E858E97A1CE
:10909000A5A5A5A5A5C3C8CDD4DADA120B22520521
:1090A000A260E5600D70FEBD05208005A060E56052
:1090B00060680F235B055840800209D5A260E56017
:1090C000022E02D1E120C0000AE07D20400107E02D
:1090D000E260A560022E01D1C82001E0FF2091309E
:1090E0000E706421FFF722F878430022014646E023
:1090F00005208005A060E56060680F235B0558408F
:10910000800204D5A260E56019204001E8E7E26032
:10911000A560E1E705208005A060E56060680F2399
:109120005B055840800202D5A260E560CDE7E260B1
:10913000A560D3E705208005A060E56060680F2387
:109140005B055840800202D5A260E56001E0E26064
:10915000A5600E707900002211E005208005A06056
:10916000E56060680F235B055840800202D5A2606D
:10917000E56001E0E260A5600E70002239460098CB
:10918000FFF7CAFBFEBD05239B0544E06068012193
:1091900089050A468243A2600840E06010E06168E9
:1091A0000120800502468A43A2600140E160E4E7B5
:1091B00061680120800502468A43A2600140E160A7
:1091C0000199C8E70F214905E1601BE00F46886956
:1091D000FFF7E4FB11218A1B1C4E01D0002802D0AE
:1091E000A660E560FEBD012A0BD91046C8214843A0
:1091F0006421FEF79BFF796800224143B869FFF7BD
:109200008BFBE660A560FEBD0F225205A260E56003
:1092100015E007239B05A360E5600EE00D225205D3
:10922000A260E5600122920507E00322D205A26058
:10923000E560921001E00F225205E260A5600E7019
:10924000FEBD00002C200020000500500000800022
:10925000F8B50D4606466946FFF7AAFA6A4614783D
:1092600069463046FFF7A4FA6A46107824020443A0
:1092700069463046FFF79CFA6A4610782402044398
:1092800069463046FFF794FA6A4612782102114384
:109290002960F8BD38B5044682880168FFF799FA5D
:1092A0002046FFF781FA69462046FFF7D1FF69465D
:1092B0002046FFF7CDFF38BD70B50C460546090EB8
:1092C000FFF799FA2402210E2846FFF794FA2402A8
:1092D000210E2846FFF78FFA2002010E2846FFF7DD
:1092E0008AFA70BD02490918282008567047000004
:1092F00044260020F8B5224801694A1C3DD02422AA
:109300005143826889184E681E494C684769007944
:10931000E11B0D022D0AED1C002814D101201A4A70
:1093200000045060184A403A5060184940000860F4
:10933000174908601749012008602F20FEF7CAFE70
:109340000F4901200871B54200D23546E8190002E4
:109350000C49000A403108600A494968001B091B92
:109360000902090A0002000AC91C814204D901202D
:109370000649400480390860F8BD00F08FFCF8BD54
:10938000D8200020001501404013014080E200E099
:1093900000E100E00010014070B58EB005461C21D0
:1093A0006846FEF7F2FE694608780C2108436946D4
:1093B000087000240194039404940594069428787A
:1093C00008A98870022069460884601C0007000F05
:1093D00010300794087711204877887FF9210840DA
:1093E000F721801C0840EF210840012630436946E0
:1093F0008877142109A8FEF7C8FE08A8099007A8D5
:109400000A9069468E851420CC85088668882B1DB5
:1094100009AAA2DF0EB070BDF8B50D461178064658
:10942000881D14461F2801D90C20F8BD3388072059
:10943000062BFAD31927FF01BB4202D9164A9342E1
:10944000F3D17288062AF0D3BA4202D9124FBA4237
:10945000EBD1114FBB4203D0BA4201D09342E4D8C2
:10946000481C052220706A5420781222411C217069
:109470002A5420784119308800F076FE217840186F
:10948000C0B220704119708800F06EFE217840183B
:1094900020700020F8BD0000FFFF000010B5002282
:1094A0001146FFF775F910BDF8B5164800F002F93E
:1094B000144D0026103D144C002807D06169002986
:1094C0001BD001206A461070684615E028780028F5
:1094D00005D06169002910D0684606700CE06878F4
:1094E00000280CD0A16800226868FFF715FA002850
:1094F00003D0A169002900D088472E70F8BD6168AB
:10950000F1E70000842000200826002010B50E4955
:1095100000238A78CC78A24212D0521CD2B28A7030
:10952000022A00D18B708A78074B92001C339A581C
:109530000260486910180002000A4861012010BD4D
:109540000360002010BD0000D8200020F7B5144CA7
:109550000025A76823691EE024215943C9194E68D4
:10956000864202D9301A486017E0801B7519002620
:109570004E600E750E699C460B6AB646002E0AD0E8
:10958000019E76193602360A8E607646CE601668DF
:109590000E6261461160591CDED12361FEBD0000E0
:1095A000D82000200A4610B500210846135C0902A5
:1095B0001943401C0428F9DB044881601830FFF788
:1095C0007BFE002000F004F810BD00000020002009
:1095D000F8B5174C050002D1207800281CD014489B
:1095E00069461830FFF734FE11490646F0200F2275
:1095F00000230C31002E17D00A704871009303220B
:109600008E1800987070000A0090521EF8D52370D2
:10961000002D01D0012020700549062312311A4681
:10962000881F00F0CBFBF8BD08704A71E7E7000027
:1096300000200020F8B51E4C2078002837D0206983
:10964000002807D00026E068002805D00025002E5D
:1096500004D013E00126F6E70125F8E7684651DF5C
:10966000052806D0002806D000221146FFF790F802
:1096700004E0012602E0216900988847002D12D1FC
:10968000608869460880A06861DF052806D0002848
:1096900006D000221146FFF77BF804E0012502E026
:1096A000E168A0688847002ED8D0002DCFD0F8BD43
:1096B000FC200020418805480288914204D340885C
:1096C000814201D801207047002070477C20002093
:1096D0001048018CC9B2012917D1818C090714D116
:1096E000018D09060A0F03D1828D1206120F0ED0CA
:1096F000090F012903D1828D1206120F07D0032909
:1097000003D1808D0006000F01D00020704701209A
:1097100070470000C00F00F0024A0321800080184B
:109720000160704700070050012282400348002971
:1097300001D082607047C260704700000005005091
:10974000F8B5234801690091457833E02048E900E5
:10975000C0680E1834782AE0182060437168641CD1
:109760000818B178E4B2A14200D10024017802299E
:1097700002D003291BD113E0154A406824219268C6
:1097800041438F18397D002911D000F075FC00206D
:1097900038750CE024277843C0180275006A03E08E
:1097A0000B4900228B680869471CF3D10861707867
:1097B000A042D1D128466D1EEDB20028C6D1044882
:1097C00001690098814201D00120F8BD0020F8BD58
:1097D000D8200020F8B504463848002701690091D8
:1097E00046785CE03548F100C2688D1851E0601C95
:1097F00007D0324A24209268604321468018046AC8
:1098000024E02878182141436A68401CC0B25218ED
:109810002870A978884200D12F70284B51682420E5
:109820009B684843C0181378012B34D1037D002B6B
:1098300031D193688360D368C3601369036152694F
:10984000C2611E4A5279002A00D087601B4B826891
:109850005B6996469C46D31A1A02194B120A9A4221
:1098600002D2C368D21808E0724663469A1A1202FE
:10987000C368120A934202D99A1A426000E0476014
:1098800087600122C7600275921E0262084600F0DE
:10989000C1FB601CABD1287869788842A7D13046DB
:1098A000761EF6B200289DD10448016900988142D5
:1098B00001D00120F8BD0020F8BD0000D820002014
:1098C000FFFF7F00002488B00522484B1146204648
:1098D0000094FEF7C7FF002803D000221146FEF7D0
:1098E00057FF4249002348224839082000F04EFA29
:1098F000002803D000221146FEF74AFF0094684674
:109900000194047060DF002803D000221146FEF7A6
:109910003FFF374800F030FA002803D000221146FC
:10992000FEF736FF1120694608720E2231A102A807
:109930007CDF002803D000221146FEF729FF0094A7
:1099400010216846019401803C214180FF218480E0
:109950009131C1807ADF002803D000221146FEF742
:1099600017FF1220FFF7D8FE00211220FFF7DCFEC0
:109970002448009069462448FFF7B4FA002803D031
:1099800000221146FEF704FF2048FFF783FC204821
:1099900000F05EFAFEF7CAFE1C216846FEF7F5FBF2
:1099A0000520C00301900F200004029000940321C1
:1099B00068460173C48104741648059016480690E1
:1099C0006846FFF709FA002803D000221146FEF787
:1099D000DFFE0320FFF710F900E048DF0028FCD08D
:1099E00000221146FEF7D4FEF7E700005C210020BC
:1099F000BD8E01004E6F726469635F476174657765
:109A000061790000A5950100EC23002018200020BA
:109A1000D1950100B19B01009D94010070B50546F0
:109A200000790E46801C1446C0B21178821C8A1838
:109A30001F2A01D90C2070BD0A46491C2170401C08
:109A4000B0542078FF22411C2170325420788119B3
:109A5000288800F089FB21784018C0B22070AA88BD
:109A6000002A09D0A968002908D08019FEF774FBE4
:109A70002078297940182070002070BD072070BD23
:109A8000F8B514780746A01C15460E461F2803D8C3
:109A90007878801C1F2801D90C20F8BD1D20001BE0
:109AA00080B26946864608803019801C7DDF002818
:109AB000F3D13878022805D168460088704501D86E
:109AC000092107E078780821002801D0704501D9E4
:109AD00068460088421C3255641CE2B2B1542978B1
:109AE000801C081828700020F8BD0000820006487D
:109AF0001018026803231B049A43026002680904D9
:109B00000A430260704700000007005003494018F4
:109B10000068012800D0002070470000006000406D
:109B200010B500280AD0032808D10220FFF78AFACE
:109B3000002803D000221146FEF72AFE10BD0000C7
:109B400070B505460088194C102811D011281AD07C
:109B5000132825D052280AD100231A4619466088B6
:109B6000A9DF002803D000221146FEF711FE70BDC8
:109B70000720FFF767FA002803D000221146FEF7FE
:109B800007FEA8880AE00020FFF75CFA002803D04F
:109B900000221146FEF7FCFD0020C043608070BD2E
:109BA00000231A46852160887FDFDAE70020002045
:109BB00010B50078002809D105483B21408876DFA0
:109BC000002803D000221146FEF7E2FD10BD000080
:109BD0000020002010B51D4A1D490300FEF77EFC41
:109BE00005040B3120271200487801281FD00228D5
:109BF00008D1032005E04878002804D0032801D1CB
:109C00000220487010BD134B04201860124B012035
:109C100018609368D2689A42F3D0FEF77BFC10BDBF
:109C20004878012806D0022804D00328F7D1FEF78F
:109C3000A9FC10BD9068D1688142EED1FEF790FC7E
:109C400010BD48780128E8D010BD0000342600205F
:109C50008C20002000250040002000400021425CB4
:109C6000002A01D001207047491C0629F7D30020A3
:109C70007047000007490979490701D40820704757
:109C8000002804D0044949780160002070470E2064
:109C900070470000942000209426002070B5012415
:109CA0000B49600408600B4940108860094940393D
:109CB0008860094D6C602F20FEF70CFAAC60074DF0
:109CC00000242F206C61FEF705FA2C7170BD000096
:109CD00080E100E04013014000100140D820002046
:109CE000F7B582B002981446806A0F46002833D038
:109CF000029800252030009028E00298816A0C200C
:109D000068430E18217830794A1C2270C01C7854A0
:109D100020781622411C21703A542078C1193088CD
:109D200000F022FA21784018C0B22070B288002AD0
:109D300009D0B16800290FD0C019FEF70DFA2078BC
:109D40003179401820706D1C0098EDB2007BA8425C
:109D5000D3D8002005B0F0BD0720FBE710B50249BD
:109D6000087000F01FF910BDB820002010B508469B
:109D70001146C046C04610BD002803D00249C86045
:109D8000002070470E207047FC20002070B500298D
:109D900001D08C0701D0072070BD064C0125A160C1
:109DA00062800549636010DF0028F5D12570162018
:109DB0002EDF70BDFC2000206D9D010070B50028D5
:109DC0000ED000290CD00D4C2578002D0AD0012D85
:109DD00011D0022D06D0032D04D00324204670BDDF
:109DE0000E2070BD62612161E060A361002401204A
:109DF000FFF7B4FFF2E70824F0E70000B8200020E6
:109E000037B568460078012815D10A20FFF71AF9FE
:109E1000040003D000221146FEF7BAFC0648016890
:109E2000002902D0012088470446200003D00022E8
:109E30001146FEF7ADFC3EBD282000200349002856
:109E4000C86101D0002070470E207047B820002064
:109E500030B5054685B01748FFF7F0FF002803D05E
:109E600000221146FEF794FC0A2000900C2001907D
:109E70000820029006200390002168460174012109
:109E80004174AA2181745521C17400F017F80400AF
:109E900003D000221146FEF77BFC07480560012035
:109EA000A847200003D000221146FEF771FC0020D5
:109EB00005B030BD019E010028200020F0B500282B
:109EC0002FD02E4DA9680A0201688B002C495B181F
:109ED0001A606A68C36892009B005B181A60426847
:109EE00000249200521814608268920051180C608D
:109EF000244AC168516181689160416811610168BB
:109F0000D16094631F4940318C60067C0023002E91
:109F10000ED0012E07D0022E07D0032E07D0072027
:109F2000F0BD0E20F0BD022302E0042300E0062372
:109F3000144E477CC036002F01D101273B434B61B3
:109F4000837CCB61C07C30600F48446084620F49E1
:109F5000042008602C700E480168C023090A090219
:109F6000194301600B49102008600C4B0A495960E5
:109F70000B490860022010602046F0BDB820002088
:109F800000070050004500400041004000420040F2
:109F900004E400E080E200E002040000004300402E
:109FA00000E100E03EB5144C22780121012A15D0D1
:109FB0002046C069022A14D0032A0ED16A461170C5
:109FC0000E49C96B01910D494031C96802910028C1
:109FD0000CD06B4607CBE36998473EBD0848416209
:109FE0003EBD00216A4611700191EFE70022114643
:109FF0001046FEF7CDFBECE7B820002000450040FE
:10A000000040004001200249000508607047000040
:10A0100000E200E0F0B5174F2421BC6841430D1960
:10A0200039694A1C09D024224A4316196B687268A0
:10A03000934204D8D21A726029623861F0BD0A4690
:10A0400002E00A46396A9B1B4E1C0BD024264E4365
:10A0500037197E689E42F4D324264E43361977681A
:10A06000FF1A77606B60296224214A431119086244
:10A07000F0BD0000D820002070B5194C2269A568F9
:10A080001346114606E0814207D00A462426714352
:10A090004919096A4E1CF6D170BD002EFCD08A42C7
:10A0A0000CD1242043435819006A2061401C05D17B
:10A0B0000C4B0120986000236361607124204143B0
:10A0C0004819242341685A43006A52191062421CFD
:10A0D000E2D024225043401942685118416070BDBB
:10A0E000D820002000100140F8B51D4C2569681CDF
:10A0F00035D01C48002640686169401A07023F0AB3
:10A1000019E024204543A0682A185068B84214D8A2
:10A11000A3693F1A8619156A002B09D0D169906985
:10A120009847002807D000221146FEF731FB02E0D5
:10A130009169D0698847681CE3D1A178E0788142B1
:10A1400006D1401CC0B2E070022801D10020E070AE
:10A1500003490006800D1C310E50FFF753FFF8BD78
:10A16000D8200020001501400870000A4870022025
:10A170007047000038B51549154A488890420FD0FD
:10A180004A78144C521CD2B24A70237B934208D3B3
:10A19000083175DF002803D0A169002900D0884765
:10A1A00038BD00254D70217C002907D03B2176DF8A
:10A1B000002803D0A169002900D0884761690029DF
:10A1C000EED068460570884738BD00007420002036
:10A1D000FFFF00000826002012494868C005C00D96
:10A1E00019D0103840B2002807DA0207120F083AD7
:10A1F000920892005118C96904E081080A4A89004E
:10A20000891809688007C00EC1400806800F012820
:10A2100003D0032803D0022070470020704701209C
:10A220007047000000ED00E000E400E04278837831
:10A23000521C934200D100220378934201D10020A6
:10A2400070470A60416840781822504308187047E8
:10A25000F8B51546069C1E4607460222009400F0FB
:10A260000AF8002806D133461022294638460094C1
:10A2700000F001F8F8BDFFB583B0074600200C9C44
:10A280008646267805463AE07868A90041180A888B
:10A29000684682804988C1800022694601A865DF3E
:10A2A000002810D1684601780598814226D1704671
:10A2B000002801D0002200E00222207889184118ED
:10A2C0001F2902D90C2007B0F0BD7146002908D122
:10A2D000401CC0B2411C069B049A21701A540120F4
:10A2E0008646217806980A18694601A865DF002885
:10A2F000E9D1694620780978401820706D1C3888AB
:10A30000A842C1DC7046002804D020780699801B42
:10A31000401E88550020D6E70179002902D1007B34
:10A32000002800D0012070479ECADC240EE5A9E079
:10A3300093F3A3B50000406E58A301000020002055
:10A3400014010000F68401006CA401001421002017
:10A350005C0E0000068501000100FFFF0100020005
:10A3600000000000000000000000000000000000ED
:10A370000024002040000000000000000000000059
:10A3800000000000000000000000000000000000CD
:10A3900000000000000000000000000000000000BD
:10A3A00000000000000000000000000000000000AD
:10A3B00000000000FFFF000000000000000000009F
:10A3C000000000000000000000000000000000008D
:10A3D000000000000000000000000000000000007D
:10A3E000000000000100000000000000000000006C
:10A3F000000000000000000000000000000000005D
:10A40000000000000000000000000000000000004C
:10A41000000000000000000000000000000000003C
:10A42000000000000000000000000000000000002C
:10A43000000000000000000000000000000000001C
:10A44000000000000000000000000000000000000C
:10A4500000000000000000000000000000000000FC
:0CA4600000000000000000000024F400D8
:04000005000180C1B5
:00000001FF
